{
  "contractName": "SocialNetworkToken",
  "abi": [
    {
      "inputs": [],
      "name": "initialize",
      "outputs": [],
      "stateMutability": "payable",
      "type": "function",
      "payable": true
    },
    {
      "inputs": [],
      "name": "addUser",
      "outputs": [],
      "stateMutability": "payable",
      "type": "function",
      "payable": true
    },
    {
      "inputs": [
        {
          "internalType": "string",
          "name": "message",
          "type": "string"
        }
      ],
      "name": "addPost",
      "outputs": [],
      "stateMutability": "payable",
      "type": "function",
      "payable": true
    },
    {
      "inputs": [
        {
          "internalType": "address",
          "name": "poster",
          "type": "address"
        },
        {
          "internalType": "uint256",
          "name": "index",
          "type": "uint256"
        },
        {
          "internalType": "string",
          "name": "message",
          "type": "string"
        }
      ],
      "name": "addComment",
      "outputs": [],
      "stateMutability": "payable",
      "type": "function",
      "payable": true
    },
    {
      "inputs": [
        {
          "internalType": "string",
          "name": "profession",
          "type": "string"
        },
        {
          "internalType": "string",
          "name": "location",
          "type": "string"
        },
        {
          "internalType": "string",
          "name": "dob",
          "type": "string"
        },
        {
          "internalType": "string",
          "name": "interests",
          "type": "string"
        }
      ],
      "name": "updateUserMeta",
      "outputs": [],
      "stateMutability": "payable",
      "type": "function",
      "payable": true
    },
    {
      "inputs": [],
      "name": "addAdvertiser",
      "outputs": [],
      "stateMutability": "payable",
      "type": "function",
      "payable": true
    },
    {
      "inputs": [
        {
          "internalType": "string",
          "name": "message",
          "type": "string"
        }
      ],
      "name": "newAdvertisement",
      "outputs": [],
      "stateMutability": "payable",
      "type": "function",
      "payable": true
    },
    {
      "inputs": [],
      "name": "getAdvertisers",
      "outputs": [
        {
          "internalType": "address[]",
          "name": "",
          "type": "address[]"
        }
      ],
      "stateMutability": "view",
      "type": "function",
      "constant": true
    },
    {
      "inputs": [],
      "name": "getUsers",
      "outputs": [
        {
          "internalType": "address[]",
          "name": "",
          "type": "address[]"
        }
      ],
      "stateMutability": "view",
      "type": "function",
      "constant": true
    }
  ],
  "bytecode": "0x608060405234801561001057600080fd5b50611632806100206000396000f3fe6080604052600436106100855760003560e01c8063a632281911610059578063a6322819146100e5578063aae741c414610101578063d2ab48731461011d578063ec547d8014610139578063f61aa6f01461016457610085565b8062ce8e3e1461008a578063455c928c146100b55780638129fc1c146100bf57806395fa7373146100c9575b600080fd5b34801561009657600080fd5b5061009f61016e565b6040516100ac9190610edd565b60405180910390f35b6100bd61028c565b005b6100c7610427565b005b6100e360048036038101906100de9190611059565b6105b7565b005b6100ff60048036038101906100fa9190611130565b61069a565b005b61011b600480360381019061011691906111db565b610786565b005b61013760048036038101906101329190611130565b610a14565b005b34801561014557600080fd5b5061014e610aee565b60405161015b9190610edd565b60405180910390f35b61016c610c0c565b005b6060600060029054906101000a900473ffffffffffffffffffffffffffffffffffffffff1673ffffffffffffffffffffffffffffffffffffffff163373ffffffffffffffffffffffffffffffffffffffff1614610200576040517f08c379a00000000000000000000000000000000000000000000000000000000081526004016101f7906112a7565b60405180910390fd5b600680548060200260200160405190810160405280929190818152602001828054801561028257602002820191906000526020600020905b8160009054906101000a900473ffffffffffffffffffffffffffffffffffffffff1673ffffffffffffffffffffffffffffffffffffffff1681526020019060010190808311610238575b5050505050905090565b600073ffffffffffffffffffffffffffffffffffffffff163373ffffffffffffffffffffffffffffffffffffffff1614156102fc576040517f08c379a00000000000000000000000000000000000000000000000000000000081526004016102f390611313565b60405180910390fd5b6000600160003373ffffffffffffffffffffffffffffffffffffffff1673ffffffffffffffffffffffffffffffffffffffff168152602001908152602001600020541461037e576040517f08c379a00000000000000000000000000000000000000000000000000000000081526004016103759061137f565b60405180910390fd5b60018060003373ffffffffffffffffffffffffffffffffffffffff1673ffffffffffffffffffffffffffffffffffffffff168152602001908152602001600020819055506006339080600181540180825580915050600190039060005260206000200160009091909190916101000a81548173ffffffffffffffffffffffffffffffffffffffff021916908373ffffffffffffffffffffffffffffffffffffffff160217905550565b600060019054906101000a900460ff1661044f5760008054906101000a900460ff1615610458565b610457610d26565b5b610497576040517f08c379a000000000000000000000000000000000000000000000000000000000815260040161048e90611411565b60405180910390fd5b60008060019054906101000a900460ff1615905080156104e7576001600060016101000a81548160ff02191690831515021790555060016000806101000a81548160ff0219169083151502179055505b600060169054906101000a900460ff1615610537576040517f08c379a000000000000000000000000000000000000000000000000000000000815260040161052e906114a3565b60405180910390fd5b33600060026101000a81548173ffffffffffffffffffffffffffffffffffffffff021916908373ffffffffffffffffffffffffffffffffffffffff1602179055506001600060166101000a81548160ff02191690831515021790555080156105b45760008060016101000a81548160ff0219169083151502179055505b50565b6000604051806080016040528086815260200185815260200184815260200183815250905080600560003373ffffffffffffffffffffffffffffffffffffffff1673ffffffffffffffffffffffffffffffffffffffff1681526020019081526020016000206000820151816000019080519060200190610638929190610d4a565b506020820151816001019080519060200190610655929190610d4a565b506040820151816002019080519060200190610672929190610d4a565b50606082015181600301908051906020019061068f929190610d4a565b509050505050505050565b600073ffffffffffffffffffffffffffffffffffffffff163373ffffffffffffffffffffffffffffffffffffffff16141561070a576040517f08c379a000000000000000000000000000000000000000000000000000000000815260040161070190611313565b60405180910390fd5b600260003373ffffffffffffffffffffffffffffffffffffffff1673ffffffffffffffffffffffffffffffffffffffff16815260200190815260200160002081908060018154018082558091505060019003906000526020600020016000909190919091509080519060200190610782929190610d4a565b5050565b600073ffffffffffffffffffffffffffffffffffffffff163373ffffffffffffffffffffffffffffffffffffffff1614156107f6576040517f08c379a00000000000000000000000000000000000000000000000000000000081526004016107ed90611313565b60405180910390fd5b826000600160008373ffffffffffffffffffffffffffffffffffffffff1673ffffffffffffffffffffffffffffffffffffffff16815260200190815260200160002054141561087a576040517f08c379a00000000000000000000000000000000000000000000000000000000081526004016108719061150f565b60405180910390fd5b336000600160008373ffffffffffffffffffffffffffffffffffffffff1673ffffffffffffffffffffffffffffffffffffffff1681526020019081526020016000205414156108fe576040517f08c379a00000000000000000000000000000000000000000000000000000000081526004016108f59061150f565b60405180910390fd5b600060405180606001604052803373ffffffffffffffffffffffffffffffffffffffff168152602001868152602001858152509050600360008773ffffffffffffffffffffffffffffffffffffffff1673ffffffffffffffffffffffffffffffffffffffff16815260200190815260200160002081908060018154018082558091505060019003906000526020600020906003020160009091909190915060008201518160000160006101000a81548173ffffffffffffffffffffffffffffffffffffffff021916908373ffffffffffffffffffffffffffffffffffffffff160217905550602082015181600101556040820151816002019080519060200190610a09929190610d4a565b505050505050505050565b6000600760003373ffffffffffffffffffffffffffffffffffffffff1673ffffffffffffffffffffffffffffffffffffffff168152602001908152602001600020541415610a97576040517f08c379a0000000000000000000000000000000000000000000000000000000008152600401610a8e9061157b565b60405180910390fd5b80600960003373ffffffffffffffffffffffffffffffffffffffff1673ffffffffffffffffffffffffffffffffffffffff1681526020019081526020016000209080519060200190610aea929190610d4a565b5050565b6060600060029054906101000a900473ffffffffffffffffffffffffffffffffffffffff1673ffffffffffffffffffffffffffffffffffffffff163373ffffffffffffffffffffffffffffffffffffffff1614610b80576040517f08c379a0000000000000000000000000000000000000000000000000000000008152600401610b77906112a7565b60405180910390fd5b6008805480602002602001604051908101604052809291908181526020018280548015610c0257602002820191906000526020600020905b8160009054906101000a900473ffffffffffffffffffffffffffffffffffffffff1673ffffffffffffffffffffffffffffffffffffffff1681526020019060010190808311610bb8575b5050505050905090565b600073ffffffffffffffffffffffffffffffffffffffff163373ffffffffffffffffffffffffffffffffffffffff161415610c7c576040517f08c379a0000000000000000000000000000000000000000000000000000000008152600401610c7390611313565b60405180910390fd5b6001600760003373ffffffffffffffffffffffffffffffffffffffff1673ffffffffffffffffffffffffffffffffffffffff168152602001908152602001600020819055506008339080600181540180825580915050600190039060005260206000200160009091909190916101000a81548173ffffffffffffffffffffffffffffffffffffffff021916908373ffffffffffffffffffffffffffffffffffffffff160217905550565b6000610d3130610d37565b15905090565b600080823b905060008111915050919050565b828054610d56906115ca565b90600052602060002090601f016020900481019282610d785760008555610dbf565b82601f10610d9157805160ff1916838001178555610dbf565b82800160010185558215610dbf579182015b82811115610dbe578251825591602001919060010190610da3565b5b509050610dcc9190610dd0565b5090565b5b80821115610de9576000816000905550600101610dd1565b5090565b600081519050919050565b600082825260208201905092915050565b6000819050602082019050919050565b600073ffffffffffffffffffffffffffffffffffffffff82169050919050565b6000610e4482610e19565b9050919050565b610e5481610e39565b82525050565b6000610e668383610e4b565b60208301905092915050565b6000602082019050919050565b6000610e8a82610ded565b610e948185610df8565b9350610e9f83610e09565b8060005b83811015610ed0578151610eb78882610e5a565b9750610ec283610e72565b925050600181019050610ea3565b5085935050505092915050565b60006020820190508181036000830152610ef78184610e7f565b905092915050565b6000604051905090565b600080fd5b600080fd5b600080fd5b600080fd5b6000601f19601f8301169050919050565b7f4e487b7100000000000000000000000000000000000000000000000000000000600052604160045260246000fd5b610f6682610f1d565b810181811067ffffffffffffffff82111715610f8557610f84610f2e565b5b80604052505050565b6000610f98610eff565b9050610fa48282610f5d565b919050565b600067ffffffffffffffff821115610fc457610fc3610f2e565b5b610fcd82610f1d565b9050602081019050919050565b82818337600083830152505050565b6000610ffc610ff784610fa9565b610f8e565b90508281526020810184848401111561101857611017610f18565b5b611023848285610fda565b509392505050565b600082601f8301126110405761103f610f13565b5b8135611050848260208601610fe9565b91505092915050565b6000806000806080858703121561107357611072610f09565b5b600085013567ffffffffffffffff81111561109157611090610f0e565b5b61109d8782880161102b565b945050602085013567ffffffffffffffff8111156110be576110bd610f0e565b5b6110ca8782880161102b565b935050604085013567ffffffffffffffff8111156110eb576110ea610f0e565b5b6110f78782880161102b565b925050606085013567ffffffffffffffff81111561111857611117610f0e565b5b6111248782880161102b565b91505092959194509250565b60006020828403121561114657611145610f09565b5b600082013567ffffffffffffffff81111561116457611163610f0e565b5b6111708482850161102b565b91505092915050565b61118281610e39565b811461118d57600080fd5b50565b60008135905061119f81611179565b92915050565b6000819050919050565b6111b8816111a5565b81146111c357600080fd5b50565b6000813590506111d5816111af565b92915050565b6000806000606084860312156111f4576111f3610f09565b5b600061120286828701611190565b9350506020611213868287016111c6565b925050604084013567ffffffffffffffff81111561123457611233610f0e565b5b6112408682870161102b565b9150509250925092565b600082825260208201905092915050565b7f6163636573732064656e69656420666f72206f776e6572000000000000000000600082015250565b600061129160178361124a565b915061129c8261125b565b602082019050919050565b600060208201905081810360008301526112c081611284565b9050919050565b7f6d697373696e6720616464726573730000000000000000000000000000000000600082015250565b60006112fd600f8361124a565b9150611308826112c7565b602082019050919050565b6000602082019050818103600083015261132c816112f0565b9050919050565b7f7573657220657869737473000000000000000000000000000000000000000000600082015250565b6000611369600b8361124a565b915061137482611333565b602082019050919050565b600060208201905081810360008301526113988161135c565b9050919050565b7f496e697469616c697a61626c653a20636f6e747261637420697320616c72656160008201527f647920696e697469616c697a6564000000000000000000000000000000000000602082015250565b60006113fb602e8361124a565b91506114068261139f565b604082019050919050565b6000602082019050818103600083015261142a816113ee565b9050919050565b7f436f6e747261637420696e7374616e63652068617320616c726561647920626560008201527f656e20696e697469616c697a6564000000000000000000000000000000000000602082015250565b600061148d602e8361124a565b915061149882611431565b604082019050919050565b600060208201905081810360008301526114bc81611480565b9050919050565b7f7573657220646f6573206e6f7420657869737400000000000000000000000000600082015250565b60006114f960138361124a565b9150611504826114c3565b602082019050919050565b60006020820190508181036000830152611528816114ec565b9050919050565b7f6e6f7420616e2061647665727469736572000000000000000000000000000000600082015250565b600061156560118361124a565b91506115708261152f565b602082019050919050565b6000602082019050818103600083015261159481611558565b9050919050565b7f4e487b7100000000000000000000000000000000000000000000000000000000600052602260045260246000fd5b600060028204905060018216806115e257607f821691505b602082108114156115f6576115f561159b565b5b5091905056fea26469706673582212207f31751c865f4d16d103f9009fcb21290fe0e34555025e2d8d0b9803e307c34664736f6c634300080a0033",
  "immutableReferences": {},
  "source": "// SPDX-License-Identifier: CC-BY-4.0\npragma solidity >=0.4.22 <0.9.0;\n\nimport \"../node_modules/@openzeppelin/contracts-upgradeable/proxy/utils/Initializable.sol\";\n\ncontract SocialNetworkToken is Initializable {\n\n  bytes32 constant private ZERO_BYTES = bytes32(0);\n  address constant private ZERO_ADDRESS = address(0);\n\n  address payable private _owner;\n  bool private initialized;\n\n  struct Comment {\n    address commentor;\n    uint256 post_index;\n    string  message;\n  }\n\n  struct UserMeta {\n    string profession;\n    string location;\n    string dob;\n    string interests;\n  }\n\n  mapping (address => uint256) private users;\n  mapping (address => string[]) private posts;\n  mapping (address => Comment[]) private comments;\n  mapping (address => uint256[]) private likes;\n  mapping (address => UserMeta) private user_meta;\n\n  address[] private _users;\n\n  // advertisers\n  mapping (address => uint256) private advertisers;\n  address[] private _advertisers;\n  mapping (address => string) private advertisements;\n\n  // initializer is a modifier in the @openzeppelin/contracts-upgradeable/proxy/utils/Initializable.sol\n  function initialize()\n   public payable\n   initializer\n  {\n    require(!initialized, \"Contract instance has already been initialized\");\n    _owner = payable(msg.sender); // this may show as a syntax error, but will pass during compile\n    initialized = true;\n  }\n\n  modifier onlyOwner() {\n    require(msg.sender == _owner, \"access denied for owner\");\n    _;\n  }\n\n  modifier addressValid() {\n    require(msg.sender != address(0), \"missing address\");\n    _;\n  }\n\n  modifier userNotExist() {\n    require(users[msg.sender] == 0, \"user exists\");\n    _;\n  }\n\n  modifier isUser(address user) {\n    require(users[user] != 0,\"user does not exist\");\n    _;\n  }\n\n  modifier notUser(address user) {\n    require(users[user] == 0,\"user already exists\");\n    _;\n  }\n\n  modifier isAdvertiser() {\n    require(advertisers[msg.sender] != 0, \"not an advertiser\");\n    _;\n  }\n\n  modifier notAdvertiser() {\n    require(advertisers[msg.sender] == 0, \"is an advertiser\");\n    _;\n  }\n\n  function addUser()\n    public\n    payable\n    addressValid\n    userNotExist\n  {\n    users[msg.sender] = 1;\n    _users.push(msg.sender);\n  }\n\n  function addPost(string memory message)\n    public\n    payable\n    addressValid\n  {\n    posts[msg.sender].push(message);\n  }\n\n  function addComment(address poster, uint index, string memory message)\n    public\n    payable\n    addressValid\n    isUser(poster)\n    isUser(msg.sender)\n  {\n    Comment memory comment = Comment(msg.sender, index, message);\n    comments[poster].push(comment);\n  }\n\n  /**\n   * interests is comma dellimited string\n   */\n  function updateUserMeta(string memory profession, string memory location, string memory dob, string memory interests)\n    public\n    payable\n  {\n    UserMeta memory meta = UserMeta(profession, location, dob, interests);\n    user_meta[msg.sender] = meta;\n  }\n\n  // Add a new advertiser\n  function addAdvertiser()\n    public\n    payable\n    addressValid\n  {\n    advertisers[msg.sender] = 1;\n    _advertisers.push(msg.sender);\n  }\n\n  function newAdvertisement(string memory message)\n    public\n    payable\n    isAdvertiser\n  {\n    advertisements[msg.sender] = message;\n  }\n\n  function getAdvertisers()\n    public\n    view\n    onlyOwner\n    returns (address[] memory)\n  {\n    return _advertisers;\n  }\n\n  function getUsers()\n    public\n    view\n    onlyOwner\n    returns (address[] memory)\n  {\n    return _users;\n  }\n}\n",
  "sourcePath": "G:\\projects\\social-network-token\\ethereum\\contracts\\SocialNetworkToken.sol",
  "compiler": {
    "name": "solc",
    "version": "0.8.10+commit.fc410830.Emscripten.clang"
  },
  "schemaVersion": "3.4.3",
  "updatedAt": "2021-12-17T14:56:12.933Z",
  "networkType": "ethereum",
  "devdoc": {
    "kind": "dev",
    "methods": {},
    "version": 1
  },
  "userdoc": {
    "kind": "user",
    "methods": {
      "updateUserMeta(string,string,string,string)": {
        "notice": "interests is comma dellimited string"
      }
    },
    "version": 1
  }
}